:100000000C9463000C948B000C948B000C948B006C
:100010000C948B000C948B000C948B000C948B0034
:100020000C948B000C948B000C948B000C948B0024
:100030000C948B000C948B000C948B000C948B0014
:100040000C94E8030C948B000C94CA070C940D08D4
:100050000C948B000C948B000C948B000C948B00F4
:100060000C948B000C948B00000000070002010030
:100070000003040600000000000000000102040864
:100080001020408001020408102001020408102002
:10009000040404040404040402020202020203032E
:1000A00003030303000000002300260029000000D2
:1000B0000000250028002B0000000000240027007D
:1000C0002A001103C90811241FBECFEFD8E0DEBFFC
:1000D000CDBF12E0A0E0B1E0E6EEF2E102C0059093
:1000E0000D92AE37B107D9F724E0AEE7B2E001C018
:1000F0001D92A430B207E1F710E0C6ECD0E004C0D6
:100100002297FE010E946D09C23CD107C9F70E94E7
:100110002B070C941F090C9400000F931F93CF938F
:10012000DF938C01EB0161E071E08AE593E00E94CE
:100130003D06B8018AE593E00E943D0663E071E068
:100140008AE593E00E943D064AE050E0BE018AE560
:1001500093E0DF91CF911F910F910C940F07FF92C5
:100160000F931F93CF93DF93EC018B0165E071E058
:100170008AE593E00E943D06F88061E071E08AE53F
:1001800093E00E943D0667E071E08AE593E00E94FB
:100190003D0663E071E08AE593E00E943D064AE097
:1001A00050E06F2D8AE593E00E942407FC8861E00F
:1001B00071E08AE593E00E943D066BE071E08AE51C
:1001C00093E00E943D0663E071E08AE593E00E94BF
:1001D0003D066F2D70E04AE050E08AE593E00E9412
:1001E0000F076C817D8183E191E00E948D006C811D
:1001F0007D812E813F81621B730B82E191E00E9421
:100200008D002C813D818E819F812817390739F41B
:10021000688579852C853D85621B730B02C06889D2
:10022000798985E191E00E948D000115110559F051
:1002300068E171E08AE593E00E943D06B8018AE535
:1002400093E00E943D0662E071E08AE593E0DF9171
:10025000CF911F910F91FF900C945A06CF92DF928D
:10026000EF92FF920F931F93CF93DF93EC0188815E
:100270009B81992319F0E2ECF4E002C0E6EDF5E091
:1002800009952C813D813F832E839D838C830E9421
:100290003204688779878A879B87EC81FD814E814C
:1002A0005F81E417F50791F00C851D852E853F854C
:1002B0006B017C01C01AD10AE20AF30AC88AD98A02
:1002C000EA8AFB8A6C877D878E879F87CF01841B94
:1002D000950BDF91CF911F910F91FF90EF90DF90E1
:1002E000CF900895CF92DF92EF92FF920F931F93DA
:1002F000CF93DF93EC01162F072F88819B819923E1
:1003000019F00E94DF0402C00E94A0058C819D812B
:100310009F838E831C830D830E94320468877987B4
:100320008A879B87EC81FD814E815F81E417F50709
:1003300091F00C851D852E853F856B017C01C01ACF
:10034000D10AE20AF30AC88AD98AEA8AFB8A6C8748
:100350007D878E879F87CF01841B950BDF91CF917F
:100360001F910F91FF90EF90DF90CF9008950F9322
:100370001F93CF93DF93EC01862F688349835A83C1
:100380002B8391E09C8B642F0E9467050E943204AE
:100390006C877D878E879F8789819A81019751F429
:1003A0001D830C83B801CE01DF91CF911F910F9176
:1003B0000C94720188819B81992319F0E2ECF4E09E
:1003C00002C0E6EDF5E009959D838C83CE01DF91B7
:1003D000CF911F910F910C942E0162E071E08AE59C
:1003E00093E00E945A066BE171E08AE593E00E9477
:1003F0005A0661E471E08AE593E00E945A0667E6D6
:1004000071E08AE593E00E945A066DE871E08AE5A2
:1004100093E00E945A066BE171E08AE593E00E9446
:100420005A0662E071E08AE593E00C945A0662E0B5
:1004300071E08AE593E00E945A066CE271E08AE579
:1004400093E00E945A0663EB71E08AE593E00E9414
:100450005A066CE271E08AE593E00E945A0662E077
:1004600071E08AE593E00E945A0668EC71E08AE543
:1004700093E00E945A066FEC71E08AE593E00E94D7
:100480005A0662E071E08AE593E00C945A0640E077
:1004900052EC61E070E08AE593E00E94480864EF66
:1004A00071E080E090E00E9461040C94ED01FC0199
:1004B0002489222359F044815581268137814217AE
:1004C000530721F069ED71E00C94AF000895FC0131
:1004D0002489222359F0448155812681378142178E
:1004E000530721F063EF71E00C94AF000895FC0115
:1004F00084898823A1F084819581892B09F067C0C4
:1005000086819781892B09F062C080859185248539
:100510003585821B930B883B9B408CF40895848126
:10052000958126813781821B930B181619060CF0D2
:100530004EC081E0848B6DE072E0CF0146C0148A2A
:1005400061E372E0CF010E94AF0060E070E082E101
:1005500093E00E94720160E070E082E193E00E940B
:10056000AF0064E670E080E090E00E94610461E02A
:1005700070E082E193E00E94720160E070E082E14D
:1005800093E00E94AF0064E670E080E090E00E949B
:10059000610460E070E082E193E00E94720160E03B
:1005A00070E082E193E00E94AF0064E670E080E0DA
:1005B00090E00E94610461E070E082E193E00E94BB
:1005C000720160E070E082E193E00C94AF00089566
:1005D000CF93DF93EC0189819A81019731F46C818B
:1005E0007D81CE010E94720103C0CE010E942E01C6
:1005F0008881843049F0853061F0823079F4CE0111
:10060000DF91CF910C946702CE01DF91CF910C94D2
:100610007702CE01DF91CF910C945702DF91CF91F9
:1006200008950F931F9300E010E020E042E050E0B7
:1006300062E070E083ED92E00E94B70120E042E0CA
:1006400050E064E070E088EE92E00E94B70120E0A4
:1006500042E050E065E070E08DEF92E00E94B7016B
:1006600001E010E020E041E050E068E070E082E16D
:1006700093E00E94B70120E041E050E06CE070E0C0
:1006800087E293E00E94B70100E010E021E040E043
:1006900050E06EE070E08CE393E00E94B7011092AE
:1006A000D1021092D2021F910F910895CF93DF9340
:1006B000C1E08091D202811107C08AE593E00E94D7
:1006C000380718161906C4F18091D202882309F45C
:1006D0005EC06AEC71E080E892E00E942209892BFA
:1006E00019F40E94170223C061ED71E080E892E0E6
:1006F0000E942209892B19F40E94ED0118C063E5BC
:1007000072E08AE593E00E943D0660E872E08AE5C7
:1007100093E00E943D066CE572E08AE593E00E945A
:100720003D0662E071E08AE593E00E945A0610926D
:10073000D1021092D2022BC0D091D10281E08D0F54
:100740008093D1028AE593E00E946107ED2FF0E0EB
:10075000E058FD4F8083E091D102EE2309F4A9CF48
:10076000AE2FB0E0A158BD4F8C918A3041F4E150DA
:10077000E093D102F0E0E058FD4F108205C0E03573
:1007800009F097CF1092D002C093D20292CFDF919E
:10079000CF91089520917E0230917F0245E1429FE2
:1007A000C001439F900D11248D529D4F0E94E8027D
:1007B0000E94560380917E0290917F02019666E02E
:1007C00070E00E94350990937F0280937E02089525
:1007D0001F920F920FB60F9211242F933F938F9376
:1007E0009F93AF93BF938091520390915303A09135
:1007F0005403B09155033091510323E0230F2D375B
:1008000020F40196A11DB11D05C026E8230F029614
:10081000A11DB11D20935103809352039093530364
:10082000A0935403B09355038091560390915703BE
:10083000A0915803B09159030196A11DB11D809359
:10084000560390935703A0935803B0935903BF9155
:10085000AF919F918F913F912F910F900FBE0F906D
:100860001F9018952FB7F89460915203709153031D
:1008700080915403909155032FBF08953FB7F8948A
:100880008091560390915703A0915803B09159035A
:1008900026B5A89B05C02F3F19F00196A11DB11DDB
:1008A0003FBF6627782F892F9A2F620F711D811DF8
:1008B000911D42E0660F771F881F991F4A95D1F757
:1008C0000895CF92DF92EF92FF92CF93DF936B0167
:1008D0007C010E943E04EB01C114D104E104F10447
:1008E00079F00E943E046C1B7D0B683E7340A0F3C0
:1008F00081E0C81AD108E108F108C851DC4FECCFFB
:10090000DF91CF91FF90EF90DF90CF900895789492
:1009100084B5826084BD84B5816084BD85B5826004
:1009200085BD85B5816085BDEEE6F0E080818160A2
:100930008083E1E8F0E010828081826080838081A2
:1009400081608083E0E8F0E0808181608083E1EB7A
:10095000F0E0808184608083E0EBF0E08081816062
:100960008083EAE7F0E08081846080838081826018
:100970008083808181608083808180688083109201
:10098000C10008958E3008F08E50877020910001CC
:1009900090E4299F90011124822B80937C00809108
:1009A0007A00806480937A0080917A0086FDFCCF83
:1009B000809178002091790090E0922B08951F9308
:1009C000CF93DF93182FEB0161E00E94670520971A
:1009D00011F460E004C0CF3FD10539F461E0812F0C
:1009E000DF91CF911F910C94A005E12FF0E0E85921
:1009F000FF4FE491E330F9F048F4E130B9F0E23030
:100A0000A1F584B5806284BDC8BD34C0E630E9F08C
:100A1000E73019F1E43049F58091800080628093DD
:100A20008000D0938B00C0938A0024C084B5806876
:100A300084BDC7BD1FC08091800080688093800006
:100A4000D0938900C093880015C08091B000806861
:100A50008093B000C093B3000DC08091B00080625D
:100A60008093B000C093B40005C0C038D1050CF02D
:100A7000B5CFAFCFDF91CF911F910895833081F033
:100A800028F4813099F08230A1F008958630A9F0E1
:100A90008730B9F08430D1F4809180008F7D03C01D
:100AA000809180008F7780938000089584B58F7740
:100AB00002C084B58F7D84BD08958091B0008F778A
:100AC00003C08091B0008F7D8093B0000895CF93D4
:100AD000DF9390E0FC01E458FF4F2491FC01E057C4
:100AE000FF4F8491882349F190E0880F991FFC0102
:100AF000E854FF4FA591B49182559F4FFC01C591D9
:100B0000D4919FB7611108C0F8948C9120958223ED
:100B10008C93888182230AC0623051F4F8948C91BE
:100B2000322F309583238C938881822B888304C055
:100B3000F8948C91822B8C939FBFDF91CF91089575
:100B40000F931F93CF93DF931F92CDB7DEB7282F5C
:100B500030E0F901E859FF4F8491F901E458FF4F63
:100B60001491F901E057FF4F04910023C9F0882345
:100B700021F069830E943E056981E02FF0E0EE0FCD
:100B8000FF1FE255FF4FA591B4919FB7F8948C9148
:100B9000611103C01095812301C0812B8C939FBFED
:100BA0000F90DF91CF911F910F910895CF93DF9315
:100BB000282F30E0F901E859FF4F8491F901E458FA
:100BC000FF4FD491F901E057FF4FC491CC2391F02E
:100BD00081110E943E05EC2FF0E0EE0FFF1FEC5557
:100BE000FF4FA591B4912C912D2381E090E021F449
:100BF00080E002C080E090E0DF91CF910895CF9235
:100C0000DF92EF92FF920F931F93CF93DF936C01CC
:100C10007A01EB01E60EF71E00E010E0CE15DF05CD
:100C200061F06991D601ED91FC910190F081E02D88
:100C3000C6010995080F191FF1CFC801DF91CF91A7
:100C40001F910F91FF90EF90DF90CF900895611565
:100C5000710581F0DB010D900020E9F7AD014150F5
:100C60005109461B570BDC01ED91FC910280F38189
:100C7000E02D099480E090E008950C942706DC01B3
:100C8000ED91FC910190F081E02D09940F931F9359
:100C9000CF93DF93EC016DE00E943F068C016AE088
:100CA000CE010E943F06800F911FDF91CF911F91CF
:100CB0000F9108950F931F93CF93DF93EC010E9440
:100CC00027068C01CE010E944606800F911FDF91FE
:100CD000CF911F910F9108958F929F92AF92BF92E3
:100CE000CF92DF92EF92FF920F931F93CF93DF93F8
:100CF000CDB7DEB7A1970FB6F894DEBF0FBECDBF5C
:100D00007C01C42EE52FCB01D22E19A221E02D1596
:100D100010F02AE0D22E8E010F5D1F4F8D2C912CEA
:100D2000A12CB12C6C2D7E2FA50194010E944909A4
:100D30008C2DD29E80191124015011098A3014F48F
:100D4000805D01C0895CF801808321153105410572
:100D5000510521F0C22EE32FCA01E4CFB801C7012B
:100D60000E942706A1960FB6F894DEBF0FBECDBF36
:100D7000DF91CF911F910F91FF90EF90DF90CF9077
:100D8000BF90AF909F908F900895CF92DF92EF9297
:100D9000FF920F931F93CF93DF93EC016A017B01C6
:100DA0002115310579F4E881F9810190F081E02D78
:100DB000642FDF91CF911F910F91FF90EF90DF9003
:100DC000CF9009942A303105E9F477FF1AC06DE21B
:100DD0000E943F068C0144275527BA014C195D0932
:100DE0006E097F092AE0CE010E946C06800F911FD8
:100DF000DF91CF911F910F91FF90EF90DF90CF90F7
:100E000008952AE0B701A601CE01DF91CF911F918D
:100E10000F91FF90EF90DF90CF900C946C069A01A9
:100E2000AB01662757FD6095762F0C94C5062115FA
:100E3000310541F4DC01ED91FC910190F081E02D50
:100E4000642F09940C946C069A01462F50E060E0E0
:100E500070E00C9417070E9487040E944702C4E0C8
:100E6000D8E00E94CA032097E1F30E940408F9CF5A
:100E7000FC0124853585F901E05CFF4F808191817B
:100E8000329620813181821B930B8F7399270895AD
:100E9000FC0184859585FC01E05CFF4F4081518118
:100EA0003296208131814217530741F00190F08141
:100EB000E02DE80FF91F808190E008958FEF9FEFFC
:100EC0000895FC0184859585FC01E05CFF4F40811D
:100ED00051813296208131814217530779F0A081E8
:100EE000B181A80FB91F8C91208131812F5F3F4FB5
:100EF0002F7333273183208390E008958FEF9FEF86
:100F00000895FC0181A1882329F0A489B5898C91D9
:100F100086FFFBCF11A20895CF93DF93FC012685B6
:100F20003785D901A05CBF4F8D919C911197019697
:100F30008F739927E901CE5BDF4F48815981841770
:100F40009507D9F30D90BC91A02DA20FB31F6C9300
:100F5000A685B785A05CBF4F11969C938E93A689FA
:100F6000B7892C9181E090E0078C02C0880F991F0F
:100F70000A94E2F7282B2C9381E081A30488F58959
:100F8000E02D80818064808381E090E0DF91CF91CB
:100F9000089508951F920F920FB60F9211242F9368
:100FA0003F934F938F939F93EF93FF938091C00054
:100FB00082FD1CC04091C600809100049091010404
:100FC00001968F73992720910204309103048217B0
:100FD000930771F0E0910004F0910104E054FC4F9C
:100FE0004083909301048093000402C08091C60066
:100FF000FF91EF919F918F914F913F912F910F9082
:101000000FBE0F901F9018958AE593E00E94380755
:10101000892B11F00C94C90708951F920F920FB6F7
:101020000F9211242F933F938F939F93EF93FF93EE
:101030002091BC033091BD038091BE039091BF030A
:101040002817390731F48091C1008F7D8093C1004A
:1010500014C0E091BE03F091BF03E458FC4F20811F
:101060008091BE039091BF0301968F73992790934F
:10107000BF038093BE032093C600FF91EF919F9121
:101080008F913F912F910F900FBE0F901F90189549
:10109000CF92DF92EF92FF92CF93DF93EC016A0140
:1010A0007B01411581EE580761057105F9F0EC8966
:1010B000FD8981E090E008A002C0880F991F0A9482
:1010C000E2F7808360E079E08DE390E0A70196018C
:1010D0000E94490921503109410951095695479506
:1010E00037952795211580E1380798F0EC89FD891F
:1010F000108260E874E88EE190E0A70196010E94FA
:1011000049092150310941095109569547953795AB
:101110002795E889F9893083EA89FB89208319A218
:10112000EE89FF89408181E090E09C010C8C02C037
:10113000220F331F0A94E2F7422B4083EE89FF8986
:1011400040819C010D8C02C0220F331F0A94E2F7EC
:10115000422B4083EE89FF8940819C010E8C02C0A6
:10116000220F331F0A94E2F7422B4083EE89FF8956
:1011700020810F8C02C0880F991F0A94E2F7809596
:1011800082238083DF91CF91FF90EF90DF90CF900B
:10119000089510925D0310925C0388EE93E0A0E046
:1011A000B0E080935E0390935F03A0936003B093DD
:1011B000610382E792E090935B0380935A0380EC93
:1011C00093E090936703809366038CE793E090939A
:1011D00069038093680385EC90E090936B038093A0
:1011E0006A0384EC90E090936D0380936C0380EC31
:1011F00090E090936F0380936E0381EC90E0909366
:1012000071038093700382EC90E09093730380935A
:10121000720386EC90E0909375038093740384E0EE
:101220008093760383E08093770387E0809378034D
:1012300085E08093790381E080937A030895F894A0
:101240000C947109FB01DC018D9181341CF08B350C
:101250000CF4805E619161341CF06B350CF4605EBF
:10126000861B611189F3990B0895AA1BBB1B51E1E1
:1012700007C0AA1FBB1FA617B70710F0A61BB70B06
:10128000881F991F5A95A9F780959095BC01CD01AB
:101290000895A1E21A2EAA1BBB1BFD010DC0AA1FB7
:1012A000BB1FEE1FFF1FA217B307E407F50720F0CF
:1012B000A21BB30BE40BF50B661F771F881F991F4A
:1012C0001A9469F760957095809590959B01AC0193
:1012D000BD01CF010895EE0FFF1F0590F491E02DA1
:0612E0000994F894FFCF11
:1012E6000120003D003B0050494E00414354495601
:1012F6004500445300444D00203A002A2A2A2A2A4F
:101306002A2A2A2A2A2A2A2A2A2A2A2A2A2A2A2A37
:101316002A2A2A2A2A2A2A2A2A2A2A2A2A2A2A2A27
:10132600002A202D20456C2043616D696E6F204395
:101336006F6E74726F6C2053797374656D2076319D
:101346002E30202D202A002A202D20436F707972FE
:101356006967687428632920323031352C2032358C
:1013660036204C4C43202020202D202A002A202DD8
:10137600205772697474656E2062792043687269B9
:1013860073746F7068657220416261642020202D3D
:10139600202A002A202D20436F6D6D616E6420483F
:1013A600656C70202D202A00202068656C70002056
:1013B6002076657273696F6E0069676E6974696F0E
:1013C6006E207377697463682074726967676572E3
:1013D6006564006661756C74207377697463682050
:1013E6006C6576656C206368616E676500656D6522
:1013F6007267656E637920756E6C6F636B207377A9
:101406006974636820726561637469766174656482
:1014160000656D657267656E637920756E6C6F63C6
:101426006B20737769746368207472696767657285
:101436006564004552524F523A2022002220756EB2
:101446006B6E6F776E20636F6D6D616E640000006A
:0E14560000008C07FF05380761074807810773
:00000001FF
